:100000000EC01DC01CC01BC01AC019C018C017C02C
:1000100016C015C014C013C012C011C010C01124E6
:100020001FBECFE5D2E0DEBFCDBF10E0A0E6B0E05E
:1000300001C01D92A136B107E1F723D091C0E0CFF6
:1000400018BA20E030E0482F50E06AEF70E0CA01B3
:10005000022E02C0959587950A94E2F780FF02C0B0
:10006000C29A01C0C298CB010197F1F7C09ACB01A7
:100070000197F1F7C0982F5F3F4F2830310539F7CE
:100080000895EF92FF920F931F93CF93DF9387B35F
:10009000876187BBC09887B1836087B986B1836069
:1000A00086B9379A8AB581608ABD8AB582608ABD71
:1000B0008AB580628ABD83B7846083BF18BC51E073
:1000C000E52EF12C04EF11E0CAEFD0E0369A369914
:1000D000FECF24B135B1C901880F892F881F990B34
:1000E0009195682F369527953695279540E050E0F5
:1000F000C701042E02C0880F991F0A94E2F7582BFB
:100100004F5F6417A8F75093600088B590E082179E
:10011000930738F012C088B58F5F88BDC80101977A
:10012000F1F788B590E082179307A8F30BC088B564
:10013000815088BDC8010197F1F788B590E0281774
:100140003907A8F3852F7CDFCE010197F1F7C49A18
:10015000CE010197F1F7C498CE010197F1F7B6CF20
:04016000F894FFCF41
:00000001FF
